{
  "_format": "hh-sol-artifact-1",
  "contractName": "SubscriptionManager",
  "sourceName": "contracts/SubscriptionManager.sol",
  "abi": [
    {
      "anonymous": false,
      "inputs": [
        {
          "indexed": false,
          "internalType": "uint256",
          "name": "id",
          "type": "uint256"
        }
      ],
      "name": "Cancelled",
      "type": "event"
    },
    {
      "anonymous": false,
      "inputs": [
        {
          "indexed": false,
          "internalType": "uint256",
          "name": "id",
          "type": "uint256"
        }
      ],
      "name": "Renewed",
      "type": "event"
    },
    {
      "anonymous": false,
      "inputs": [
        {
          "indexed": false,
          "internalType": "uint256",
          "name": "id",
          "type": "uint256"
        },
        {
          "indexed": false,
          "internalType": "address",
          "name": "user",
          "type": "address"
        },
        {
          "indexed": false,
          "internalType": "string",
          "name": "service",
          "type": "string"
        }
      ],
      "name": "Subscribed",
      "type": "event"
    },
    {
      "inputs": [
        {
          "internalType": "uint256",
          "name": "_id",
          "type": "uint256"
        }
      ],
      "name": "cancelSubscription",
      "outputs": [],
      "stateMutability": "nonpayable",
      "type": "function"
    },
    {
      "inputs": [],
      "name": "getMySubscriptions",
      "outputs": [
        {
          "components": [
            {
              "internalType": "uint256",
              "name": "id",
              "type": "uint256"
            },
            {
              "internalType": "string",
              "name": "service",
              "type": "string"
            },
            {
              "internalType": "address",
              "name": "user",
              "type": "address"
            },
            {
              "internalType": "uint256",
              "name": "amount",
              "type": "uint256"
            },
            {
              "internalType": "uint256",
              "name": "startTime",
              "type": "uint256"
            },
            {
              "internalType": "uint256",
              "name": "duration",
              "type": "uint256"
            },
            {
              "internalType": "bool",
              "name": "active",
              "type": "bool"
            }
          ],
          "internalType": "struct SubscriptionManager.Subscription[]",
          "name": "",
          "type": "tuple[]"
        }
      ],
      "stateMutability": "view",
      "type": "function"
    },
    {
      "inputs": [
        {
          "internalType": "uint256",
          "name": "_id",
          "type": "uint256"
        }
      ],
      "name": "renewSubscription",
      "outputs": [],
      "stateMutability": "payable",
      "type": "function"
    },
    {
      "inputs": [
        {
          "internalType": "string",
          "name": "_service",
          "type": "string"
        },
        {
          "internalType": "uint256",
          "name": "_duration",
          "type": "uint256"
        }
      ],
      "name": "subscribe",
      "outputs": [],
      "stateMutability": "payable",
      "type": "function"
    },
    {
      "inputs": [],
      "name": "subscriptionCounter",
      "outputs": [
        {
          "internalType": "uint256",
          "name": "",
          "type": "uint256"
        }
      ],
      "stateMutability": "view",
      "type": "function"
    },
    {
      "inputs": [
        {
          "internalType": "uint256",
          "name": "",
          "type": "uint256"
        }
      ],
      "name": "subscriptions",
      "outputs": [
        {
          "internalType": "uint256",
          "name": "id",
          "type": "uint256"
        },
        {
          "internalType": "string",
          "name": "service",
          "type": "string"
        },
        {
          "internalType": "address",
          "name": "user",
          "type": "address"
        },
        {
          "internalType": "uint256",
          "name": "amount",
          "type": "uint256"
        },
        {
          "internalType": "uint256",
          "name": "startTime",
          "type": "uint256"
        },
        {
          "internalType": "uint256",
          "name": "duration",
          "type": "uint256"
        },
        {
          "internalType": "bool",
          "name": "active",
          "type": "bool"
        }
      ],
      "stateMutability": "view",
      "type": "function"
    },
    {
      "inputs": [
        {
          "internalType": "address",
          "name": "",
          "type": "address"
        },
        {
          "internalType": "uint256",
          "name": "",
          "type": "uint256"
        }
      ],
      "name": "userSubscriptions",
      "outputs": [
        {
          "internalType": "uint256",
          "name": "",
          "type": "uint256"
        }
      ],
      "stateMutability": "view",
      "type": "function"
    }
  ],
  "bytecode": "0x608060405234801561001057600080fd5b506113c9806100206000396000f3fe6080604052600436106100705760003560e01c8063495dcbe31161004e578063495dcbe31461010c578063903a829814610128578063c95d6edc14610153578063d71bb37b1461019057610070565b806321235083146100755780632b36d9491461009e5780632d5bbf60146100c9575b600080fd5b34801561008157600080fd5b5061009c600480360381019061009791906109b8565b6101ac565b005b3480156100aa57600080fd5b506100b3610283565b6040516100c09190610c3e565b60405180910390f35b3480156100d557600080fd5b506100f060048036038101906100eb91906109b8565b610519565b6040516101039796959493929190610cd7565b60405180910390f35b61012660048036038101906101219190610e82565b610610565b005b34801561013457600080fd5b5061013d61081a565b60405161014a9190610ede565b60405180910390f35b34801561015f57600080fd5b5061017a60048036038101906101759190610f25565b610820565b6040516101879190610ede565b60405180910390f35b6101aa60048036038101906101a591906109b8565b610851565b005b3373ffffffffffffffffffffffffffffffffffffffff166001600083815260200190815260200160002060020160009054906101000a900473ffffffffffffffffffffffffffffffffffffffff1673ffffffffffffffffffffffffffffffffffffffff161461021a57600080fd5b60006001600083815260200190815260200160002060060160006101000a81548160ff0219169083151502179055507fc41d93b8bfbf9fd7cf5bfe271fd649ab6a6fec0ea101c23b82a2a28eca2533a9816040516102789190610ede565b60405180910390a150565b60606000600260003373ffffffffffffffffffffffffffffffffffffffff1673ffffffffffffffffffffffffffffffffffffffff16815260200190815260200160002080548060200260200160405190810160405280929190818152602001828054801561031057602002820191906000526020600020905b8154815260200190600101908083116102fc575b505050505090506000815167ffffffffffffffff81111561033457610333610d57565b5b60405190808252806020026020018201604052801561036d57816020015b61035a610919565b8152602001906001900390816103525790505b50905060005b8251811015610510576001600084838151811061039357610392610f65565b5b602002602001015181526020019081526020016000206040518060e0016040529081600082015481526020016001820180546103ce90610fc3565b80601f01602080910402602001604051908101604052809291908181526020018280546103fa90610fc3565b80156104475780601f1061041c57610100808354040283529160200191610447565b820191906000526020600020905b81548152906001019060200180831161042a57829003601f168201915b505050505081526020016002820160009054906101000a900473ffffffffffffffffffffffffffffffffffffffff1673ffffffffffffffffffffffffffffffffffffffff1673ffffffffffffffffffffffffffffffffffffffff1681526020016003820154815260200160048201548152602001600582015481526020016006820160009054906101000a900460ff1615151515815250508282815181106104f2576104f1610f65565b5b6020026020010181905250808061050890611023565b915050610373565b50809250505090565b600160205280600052604060002060009150905080600001549080600101805461054290610fc3565b80601f016020809104026020016040519081016040528092919081815260200182805461056e90610fc3565b80156105bb5780601f10610590576101008083540402835291602001916105bb565b820191906000526020600020905b81548152906001019060200180831161059e57829003601f168201915b5050505050908060020160009054906101000a900473ffffffffffffffffffffffffffffffffffffffff16908060030154908060040154908060050154908060060160009054906101000a900460ff16905087565b60003411610653576040517f08c379a000000000000000000000000000000000000000000000000000000000815260040161064a906110b7565b60405180910390fd5b600080600081548092919061066790611023565b9190505590506040518060e001604052808281526020018481526020013373ffffffffffffffffffffffffffffffffffffffff16815260200134815260200142815260200183815260200160011515815250600160008381526020019081526020016000206000820151816000015560208201518160010190816106eb9190611283565b5060408201518160020160006101000a81548173ffffffffffffffffffffffffffffffffffffffff021916908373ffffffffffffffffffffffffffffffffffffffff160217905550606082015181600301556080820151816004015560a0820151816005015560c08201518160060160006101000a81548160ff021916908315150217905550905050600260003373ffffffffffffffffffffffffffffffffffffffff1673ffffffffffffffffffffffffffffffffffffffff1681526020019081526020016000208190806001815401808255809150506001900390600052602060002001600090919091909150557fdd59c68aa8c931e06de17bd6891aa0ea24c49a1bf2f1603315111c41b8f20d9081338560405161080d93929190611355565b60405180910390a1505050565b60005481565b6002602052816000526040600020818154811061083c57600080fd5b90600052602060002001600091509150505481565b60006001600083815260200190815260200160002090503373ffffffffffffffffffffffffffffffffffffffff168160020160009054906101000a900473ffffffffffffffffffffffffffffffffffffffff1673ffffffffffffffffffffffffffffffffffffffff16146108c457600080fd5b80600301543410156108d557600080fd5b4281600401819055507ffe31ddbda31d56a1b63742a4c0771e609015a19fa5d8c8c94de97dc9dd63581f8260405161090d9190610ede565b60405180910390a15050565b6040518060e001604052806000815260200160608152602001600073ffffffffffffffffffffffffffffffffffffffff1681526020016000815260200160008152602001600081526020016000151581525090565b6000604051905090565b600080fd5b600080fd5b6000819050919050565b61099581610982565b81146109a057600080fd5b50565b6000813590506109b28161098c565b92915050565b6000602082840312156109ce576109cd610978565b5b60006109dc848285016109a3565b91505092915050565b600081519050919050565b600082825260208201905092915050565b6000819050602082019050919050565b610a1a81610982565b82525050565b600081519050919050565b600082825260208201905092915050565b60005b83811015610a5a578082015181840152602081019050610a3f565b60008484015250505050565b6000601f19601f8301169050919050565b6000610a8282610a20565b610a8c8185610a2b565b9350610a9c818560208601610a3c565b610aa581610a66565b840191505092915050565b600073ffffffffffffffffffffffffffffffffffffffff82169050919050565b6000610adb82610ab0565b9050919050565b610aeb81610ad0565b82525050565b60008115159050919050565b610b0681610af1565b82525050565b600060e083016000830151610b246000860182610a11565b5060208301518482036020860152610b3c8282610a77565b9150506040830151610b516040860182610ae2565b506060830151610b646060860182610a11565b506080830151610b776080860182610a11565b5060a0830151610b8a60a0860182610a11565b5060c0830151610b9d60c0860182610afd565b508091505092915050565b6000610bb48383610b0c565b905092915050565b6000602082019050919050565b6000610bd4826109e5565b610bde81856109f0565b935083602082028501610bf085610a01565b8060005b85811015610c2c5784840389528151610c0d8582610ba8565b9450610c1883610bbc565b925060208a01995050600181019050610bf4565b50829750879550505050505092915050565b60006020820190508181036000830152610c588184610bc9565b905092915050565b610c6981610982565b82525050565b600082825260208201905092915050565b6000610c8b82610a20565b610c958185610c6f565b9350610ca5818560208601610a3c565b610cae81610a66565b840191505092915050565b610cc281610ad0565b82525050565b610cd181610af1565b82525050565b600060e082019050610cec600083018a610c60565b8181036020830152610cfe8189610c80565b9050610d0d6040830188610cb9565b610d1a6060830187610c60565b610d276080830186610c60565b610d3460a0830185610c60565b610d4160c0830184610cc8565b98975050505050505050565b600080fd5b600080fd5b7f4e487b7100000000000000000000000000000000000000000000000000000000600052604160045260246000fd5b610d8f82610a66565b810181811067ffffffffffffffff82111715610dae57610dad610d57565b5b80604052505050565b6000610dc161096e565b9050610dcd8282610d86565b919050565b600067ffffffffffffffff821115610ded57610dec610d57565b5b610df682610a66565b9050602081019050919050565b82818337600083830152505050565b6000610e25610e2084610dd2565b610db7565b905082815260208101848484011115610e4157610e40610d52565b5b610e4c848285610e03565b509392505050565b600082601f830112610e6957610e68610d4d565b5b8135610e79848260208601610e12565b91505092915050565b60008060408385031215610e9957610e98610978565b5b600083013567ffffffffffffffff811115610eb757610eb661097d565b5b610ec385828601610e54565b9250506020610ed4858286016109a3565b9150509250929050565b6000602082019050610ef36000830184610c60565b92915050565b610f0281610ad0565b8114610f0d57600080fd5b50565b600081359050610f1f81610ef9565b92915050565b60008060408385031215610f3c57610f3b610978565b5b6000610f4a85828601610f10565b9250506020610f5b858286016109a3565b9150509250929050565b7f4e487b7100000000000000000000000000000000000000000000000000000000600052603260045260246000fd5b7f4e487b7100000000000000000000000000000000000000000000000000000000600052602260045260246000fd5b60006002820490506001821680610fdb57607f821691505b602082108103610fee57610fed610f94565b5b50919050565b7f4e487b7100000000000000000000000000000000000000000000000000000000600052601160045260246000fd5b600061102e82610982565b91507fffffffffffffffffffffffffffffffffffffffffffffffffffffffffffffffff82036110605761105f610ff4565b5b600182019050919050565b7f5061792045544800000000000000000000000000000000000000000000000000600082015250565b60006110a1600783610c6f565b91506110ac8261106b565b602082019050919050565b600060208201905081810360008301526110d081611094565b9050919050565b60008190508160005260206000209050919050565b60006020601f8301049050919050565b600082821b905092915050565b6000600883026111397fffffffffffffffffffffffffffffffffffffffffffffffffffffffffffffffff826110fc565b61114386836110fc565b95508019841693508086168417925050509392505050565b6000819050919050565b600061118061117b61117684610982565b61115b565b610982565b9050919050565b6000819050919050565b61119a83611165565b6111ae6111a682611187565b848454611109565b825550505050565b600090565b6111c36111b6565b6111ce818484611191565b505050565b5b818110156111f2576111e76000826111bb565b6001810190506111d4565b5050565b601f82111561123757611208816110d7565b611211846110ec565b81016020851015611220578190505b61123461122c856110ec565b8301826111d3565b50505b505050565b600082821c905092915050565b600061125a6000198460080261123c565b1980831691505092915050565b60006112738383611249565b9150826002028217905092915050565b61128c82610a20565b67ffffffffffffffff8111156112a5576112a4610d57565b5b6112af8254610fc3565b6112ba8282856111f6565b600060209050601f8311600181146112ed57600084156112db578287015190505b6112e58582611267565b86555061134d565b601f1984166112fb866110d7565b60005b82811015611323578489015182556001820191506020850194506020810190506112fe565b86831015611340578489015161133c601f891682611249565b8355505b6001600288020188555050505b505050505050565b600060608201905061136a6000830186610c60565b6113776020830185610cb9565b81810360408301526113898184610c80565b905094935050505056fea264697066735822122091b53d5398a3d5061a449a4e1ad11674c6c20e5f602a44d5833dc3d81bba20c264736f6c63430008140033",
  "linkReferences": {},
  "deployedLinkReferences": {}
}